{
  "contractName": "FundingDAO",
  "abi": [
    {
      "anonymous": false,
      "inputs": [
        {
          "indexed": true,
          "internalType": "address",
          "name": "fromAddress",
          "type": "address"
        },
        {
          "indexed": false,
          "internalType": "uint256",
          "name": "amount",
          "type": "uint256"
        }
      ],
      "name": "NewMember",
      "type": "event"
    },
    {
      "anonymous": false,
      "inputs": [
        {
          "indexed": true,
          "internalType": "address",
          "name": "proposer",
          "type": "address"
        },
        {
          "indexed": false,
          "internalType": "uint256",
          "name": "amount",
          "type": "uint256"
        }
      ],
      "name": "NewProposal",
      "type": "event"
    },
    {
      "anonymous": false,
      "inputs": [
        {
          "indexed": true,
          "internalType": "address",
          "name": "stakeholder",
          "type": "address"
        },
        {
          "indexed": true,
          "internalType": "address",
          "name": "projectAddress",
          "type": "address"
        },
        {
          "indexed": false,
          "internalType": "uint256",
          "name": "amount",
          "type": "uint256"
        }
      ],
      "name": "Payment",
      "type": "event"
    },
    {
      "anonymous": false,
      "inputs": [
        {
          "indexed": true,
          "internalType": "bytes32",
          "name": "role",
          "type": "bytes32"
        },
        {
          "indexed": true,
          "internalType": "bytes32",
          "name": "previousAdminRole",
          "type": "bytes32"
        },
        {
          "indexed": true,
          "internalType": "bytes32",
          "name": "newAdminRole",
          "type": "bytes32"
        }
      ],
      "name": "RoleAdminChanged",
      "type": "event"
    },
    {
      "anonymous": false,
      "inputs": [
        {
          "indexed": true,
          "internalType": "bytes32",
          "name": "role",
          "type": "bytes32"
        },
        {
          "indexed": true,
          "internalType": "address",
          "name": "account",
          "type": "address"
        },
        {
          "indexed": true,
          "internalType": "address",
          "name": "sender",
          "type": "address"
        }
      ],
      "name": "RoleGranted",
      "type": "event"
    },
    {
      "anonymous": false,
      "inputs": [
        {
          "indexed": true,
          "internalType": "bytes32",
          "name": "role",
          "type": "bytes32"
        },
        {
          "indexed": true,
          "internalType": "address",
          "name": "account",
          "type": "address"
        },
        {
          "indexed": true,
          "internalType": "address",
          "name": "sender",
          "type": "address"
        }
      ],
      "name": "RoleRevoked",
      "type": "event"
    },
    {
      "inputs": [],
      "name": "DEFAULT_ADMIN_ROLE",
      "outputs": [
        {
          "internalType": "bytes32",
          "name": "",
          "type": "bytes32"
        }
      ],
      "stateMutability": "view",
      "type": "function",
      "constant": true
    },
    {
      "inputs": [],
      "name": "MEMBER",
      "outputs": [
        {
          "internalType": "bytes32",
          "name": "",
          "type": "bytes32"
        }
      ],
      "stateMutability": "view",
      "type": "function",
      "constant": true
    },
    {
      "inputs": [],
      "name": "STAKEHOLDER",
      "outputs": [
        {
          "internalType": "bytes32",
          "name": "",
          "type": "bytes32"
        }
      ],
      "stateMutability": "view",
      "type": "function",
      "constant": true
    },
    {
      "inputs": [
        {
          "internalType": "bytes32",
          "name": "role",
          "type": "bytes32"
        }
      ],
      "name": "getRoleAdmin",
      "outputs": [
        {
          "internalType": "bytes32",
          "name": "",
          "type": "bytes32"
        }
      ],
      "stateMutability": "view",
      "type": "function",
      "constant": true
    },
    {
      "inputs": [
        {
          "internalType": "bytes32",
          "name": "role",
          "type": "bytes32"
        },
        {
          "internalType": "address",
          "name": "account",
          "type": "address"
        }
      ],
      "name": "grantRole",
      "outputs": [],
      "stateMutability": "nonpayable",
      "type": "function"
    },
    {
      "inputs": [
        {
          "internalType": "bytes32",
          "name": "role",
          "type": "bytes32"
        },
        {
          "internalType": "address",
          "name": "account",
          "type": "address"
        }
      ],
      "name": "hasRole",
      "outputs": [
        {
          "internalType": "bool",
          "name": "",
          "type": "bool"
        }
      ],
      "stateMutability": "view",
      "type": "function",
      "constant": true
    },
    {
      "inputs": [],
      "name": "proposalsCount",
      "outputs": [
        {
          "internalType": "uint256",
          "name": "",
          "type": "uint256"
        }
      ],
      "stateMutability": "view",
      "type": "function",
      "constant": true
    },
    {
      "inputs": [
        {
          "internalType": "bytes32",
          "name": "role",
          "type": "bytes32"
        },
        {
          "internalType": "address",
          "name": "account",
          "type": "address"
        }
      ],
      "name": "renounceRole",
      "outputs": [],
      "stateMutability": "nonpayable",
      "type": "function"
    },
    {
      "inputs": [
        {
          "internalType": "bytes32",
          "name": "role",
          "type": "bytes32"
        },
        {
          "internalType": "address",
          "name": "account",
          "type": "address"
        }
      ],
      "name": "revokeRole",
      "outputs": [],
      "stateMutability": "nonpayable",
      "type": "function"
    },
    {
      "inputs": [
        {
          "internalType": "bytes4",
          "name": "interfaceId",
          "type": "bytes4"
        }
      ],
      "name": "supportsInterface",
      "outputs": [
        {
          "internalType": "bool",
          "name": "",
          "type": "bool"
        }
      ],
      "stateMutability": "view",
      "type": "function",
      "constant": true
    },
    {
      "inputs": [
        {
          "internalType": "string",
          "name": "title",
          "type": "string"
        },
        {
          "internalType": "string",
          "name": "desc",
          "type": "string"
        },
        {
          "internalType": "address",
          "name": "receiverAddress",
          "type": "address"
        },
        {
          "internalType": "uint256",
          "name": "amount",
          "type": "uint256"
        }
      ],
      "name": "createProposal",
      "outputs": [],
      "stateMutability": "payable",
      "type": "function",
      "payable": true
    },
    {
      "inputs": [],
      "name": "getAllProposals",
      "outputs": [
        {
          "components": [
            {
              "internalType": "uint256",
              "name": "id",
              "type": "uint256"
            },
            {
              "internalType": "uint256",
              "name": "amount",
              "type": "uint256"
            },
            {
              "internalType": "uint256",
              "name": "livePeriod",
              "type": "uint256"
            },
            {
              "internalType": "uint256",
              "name": "voteInFavor",
              "type": "uint256"
            },
            {
              "internalType": "uint256",
              "name": "voteAgainst",
              "type": "uint256"
            },
            {
              "internalType": "string",
              "name": "title",
              "type": "string"
            },
            {
              "internalType": "string",
              "name": "desc",
              "type": "string"
            },
            {
              "internalType": "bool",
              "name": "isCompleted",
              "type": "bool"
            },
            {
              "internalType": "bool",
              "name": "paid",
              "type": "bool"
            },
            {
              "internalType": "bool",
              "name": "isPaid",
              "type": "bool"
            },
            {
              "internalType": "address payable",
              "name": "receiverAddress",
              "type": "address"
            },
            {
              "internalType": "address",
              "name": "proposer",
              "type": "address"
            },
            {
              "internalType": "uint256",
              "name": "totalFundRaised",
              "type": "uint256"
            },
            {
              "components": [
                {
                  "internalType": "address",
                  "name": "payer",
                  "type": "address"
                },
                {
                  "internalType": "uint256",
                  "name": "amount",
                  "type": "uint256"
                },
                {
                  "internalType": "uint256",
                  "name": "timestamp",
                  "type": "uint256"
                }
              ],
              "internalType": "struct FundingDAO.Funding[]",
              "name": "funders",
              "type": "tuple[]"
            }
          ],
          "internalType": "struct FundingDAO.Proposal[]",
          "name": "",
          "type": "tuple[]"
        }
      ],
      "stateMutability": "view",
      "type": "function",
      "constant": true
    },
    {
      "inputs": [
        {
          "internalType": "uint256",
          "name": "proposalId",
          "type": "uint256"
        }
      ],
      "name": "getProposal",
      "outputs": [
        {
          "components": [
            {
              "internalType": "uint256",
              "name": "id",
              "type": "uint256"
            },
            {
              "internalType": "uint256",
              "name": "amount",
              "type": "uint256"
            },
            {
              "internalType": "uint256",
              "name": "livePeriod",
              "type": "uint256"
            },
            {
              "internalType": "uint256",
              "name": "voteInFavor",
              "type": "uint256"
            },
            {
              "internalType": "uint256",
              "name": "voteAgainst",
              "type": "uint256"
            },
            {
              "internalType": "string",
              "name": "title",
              "type": "string"
            },
            {
              "internalType": "string",
              "name": "desc",
              "type": "string"
            },
            {
              "internalType": "bool",
              "name": "isCompleted",
              "type": "bool"
            },
            {
              "internalType": "bool",
              "name": "paid",
              "type": "bool"
            },
            {
              "internalType": "bool",
              "name": "isPaid",
              "type": "bool"
            },
            {
              "internalType": "address payable",
              "name": "receiverAddress",
              "type": "address"
            },
            {
              "internalType": "address",
              "name": "proposer",
              "type": "address"
            },
            {
              "internalType": "uint256",
              "name": "totalFundRaised",
              "type": "uint256"
            },
            {
              "components": [
                {
                  "internalType": "address",
                  "name": "payer",
                  "type": "address"
                },
                {
                  "internalType": "uint256",
                  "name": "amount",
                  "type": "uint256"
                },
                {
                  "internalType": "uint256",
                  "name": "timestamp",
                  "type": "uint256"
                }
              ],
              "internalType": "struct FundingDAO.Funding[]",
              "name": "funders",
              "type": "tuple[]"
            }
          ],
          "internalType": "struct FundingDAO.Proposal",
          "name": "",
          "type": "tuple"
        }
      ],
      "stateMutability": "view",
      "type": "function",
      "constant": true
    },
    {
      "inputs": [],
      "name": "getVotes",
      "outputs": [
        {
          "internalType": "uint256[]",
          "name": "",
          "type": "uint256[]"
        }
      ],
      "stateMutability": "view",
      "type": "function",
      "constant": true
    },
    {
      "inputs": [],
      "name": "getStakeholderBal",
      "outputs": [
        {
          "internalType": "uint256",
          "name": "",
          "type": "uint256"
        }
      ],
      "stateMutability": "view",
      "type": "function",
      "constant": true
    },
    {
      "inputs": [],
      "name": "getMemberBal",
      "outputs": [
        {
          "internalType": "uint256",
          "name": "",
          "type": "uint256"
        }
      ],
      "stateMutability": "view",
      "type": "function",
      "constant": true
    },
    {
      "inputs": [],
      "name": "isStakeholder",
      "outputs": [
        {
          "internalType": "bool",
          "name": "",
          "type": "bool"
        }
      ],
      "stateMutability": "view",
      "type": "function",
      "constant": true
    },
    {
      "inputs": [],
      "name": "isMember",
      "outputs": [
        {
          "internalType": "bool",
          "name": "",
          "type": "bool"
        }
      ],
      "stateMutability": "view",
      "type": "function",
      "constant": true
    },
    {
      "inputs": [
        {
          "internalType": "uint256",
          "name": "proposalId",
          "type": "uint256"
        },
        {
          "internalType": "bool",
          "name": "inFavour",
          "type": "bool"
        }
      ],
      "name": "vote",
      "outputs": [],
      "stateMutability": "nonpayable",
      "type": "function"
    },
    {
      "inputs": [
        {
          "internalType": "uint256",
          "name": "proposalId",
          "type": "uint256"
        },
        {
          "internalType": "uint256",
          "name": "fundAmount",
          "type": "uint256"
        }
      ],
      "name": "provideFunds",
      "outputs": [],
      "stateMutability": "payable",
      "type": "function",
      "payable": true
    },
    {
      "inputs": [
        {
          "internalType": "uint256",
          "name": "proposalId",
          "type": "uint256"
        }
      ],
      "name": "releaseFunding",
      "outputs": [],
      "stateMutability": "payable",
      "type": "function",
      "payable": true
    },
    {
      "inputs": [],
      "name": "createStakeholder",
      "outputs": [],
      "stateMutability": "payable",
      "type": "function",
      "payable": true
    }
  ],
  "bytecode": "0x6080604052600060025534801561001557600080fd5b5060016000819055506137338061002d6000396000f3fe6080604052600436106101355760003560e01c80638bc3b92b116100ab578063c7f758a81161006f578063c7f758a8146103ef578063c9d27afe1461042c578063cceb68f514610455578063d02982cf14610480578063d547741f146104ab578063f8d41b96146104d457610135565b80638bc3b92b1461032457806391d1485414610340578063a217fddf1461037d578063b3bcf752146103a8578063c02146ac146103c457610135565b8063248a9ca3116100fd578063248a9ca3146102235780632f2ff15d1461026057806336568abe146102895780636dd8cdd2146102b25780637cdc2eb7146102dd5780637ed3a7e7146102f957610135565b806301ffc9a71461013a5780630a9f46ad146101775780630d2e57ee146101a25780630dc96015146101cd5780631c681a42146101f8575b600080fd5b34801561014657600080fd5b50610161600480360381019061015c919061246f565b6104de565b60405161016e91906124b7565b60405180910390f35b34801561018357600080fd5b5061018c610558565b60405161019991906124eb565b60405180910390f35b3480156101ae57600080fd5b506101b761055e565b6040516101c491906124eb565b60405180910390f35b3480156101d957600080fd5b506101e261062c565b6040516101ef91906125c4565b60405180910390f35b34801561020457600080fd5b5061020d610748565b60405161021a91906125ff565b60405180910390f35b34801561022f57600080fd5b5061024a60048036038101906102459190612646565b61076c565b60405161025791906125ff565b60405180910390f35b34801561026c57600080fd5b50610287600480360381019061028291906126d1565b61078c565b005b34801561029557600080fd5b506102b060048036038101906102ab91906126d1565b6107b5565b005b3480156102be57600080fd5b506102c7610838565b6040516102d491906124eb565b60405180910390f35b6102f760048036038101906102f291906127a2565b610906565b005b34801561030557600080fd5b5061030e610b7c565b60405161031b91906125ff565b60405180910390f35b61033e60048036038101906103399190612849565b610ba0565b005b34801561034c57600080fd5b50610367600480360381019061036291906126d1565b610e2c565b60405161037491906124b7565b60405180910390f35b34801561038957600080fd5b50610392610e97565b60405161039f91906125ff565b60405180910390f35b6103c260048036038101906103bd9190612889565b610e9e565b005b3480156103d057600080fd5b506103d9611033565b6040516103e691906124b7565b60405180910390f35b3480156103fb57600080fd5b5061041660048036038101906104119190612889565b61107c565b6040516104239190612bbb565b60405180910390f35b34801561043857600080fd5b50610453600480360381019061044e9190612c09565b6113d0565b005b34801561046157600080fd5b5061046a61169a565b6040516104779190612e47565b60405180910390f35b34801561048c57600080fd5b50610495611a81565b6040516104a291906124b7565b60405180910390f35b3480156104b757600080fd5b506104d260048036038101906104cd91906126d1565b611aca565b005b6104dc611af3565b005b60007f7965db0b000000000000000000000000000000000000000000000000000000007bffffffffffffffffffffffffffffffffffffffffffffffffffffffff1916827bffffffffffffffffffffffffffffffffffffffffffffffffffffffff19161480610551575061055082611dae565b5b9050919050565b60025481565b60006040518060600160405280602481526020016136b7602491396105a37fffa60083152bd11704a80cc8c7a409dad8aa74288b454a3ba0e94c0abc7cf16833610e2c565b81906105e5576040517f08c379a00000000000000000000000000000000000000000000000000000000081526004016105dc9190612eb3565b60405180910390fd5b50600560003373ffffffffffffffffffffffffffffffffffffffff1673ffffffffffffffffffffffffffffffffffffffff1681526020019081526020016000205491505090565b6060604051806060016040528060288152602001613613602891396106717ff4bb84e1768dd286358a736d195a0b228621173f655a73b89bf8b191ed0ba07d33610e2c565b81906106b3576040517f08c379a00000000000000000000000000000000000000000000000000000000081526004016106aa9190612eb3565b60405180910390fd5b50600660003373ffffffffffffffffffffffffffffffffffffffff1673ffffffffffffffffffffffffffffffffffffffff16815260200190815260200160002080548060200260200160405190810160405280929190818152602001828054801561073d57602002820191906000526020600020905b815481526020019060010190808311610729575b505050505091505090565b7fffa60083152bd11704a80cc8c7a409dad8aa74288b454a3ba0e94c0abc7cf16881565b600060016000838152602001908152602001600020600101549050919050565b6107958261076c565b6107a6816107a1611e18565b611e20565b6107b08383611ebd565b505050565b6107bd611e18565b73ffffffffffffffffffffffffffffffffffffffff168173ffffffffffffffffffffffffffffffffffffffff161461082a576040517f08c379a000000000000000000000000000000000000000000000000000000000815260040161082190612f47565b60405180910390fd5b6108348282611f9d565b5050565b60006040518060600160405280602881526020016136136028913961087d7ff4bb84e1768dd286358a736d195a0b228621173f655a73b89bf8b191ed0ba07d33610e2c565b81906108bf576040517f08c379a00000000000000000000000000000000000000000000000000000000081526004016108b69190612eb3565b60405180910390fd5b50600460003373ffffffffffffffffffffffffffffffffffffffff1673ffffffffffffffffffffffffffffffffffffffff1681526020019081526020016000205491505090565b60405180606001604052806025815260200161363b602591396109497fffa60083152bd11704a80cc8c7a409dad8aa74288b454a3ba0e94c0abc7cf16833610e2c565b819061098b576040517f08c379a00000000000000000000000000000000000000000000000000000000081526004016109829190612eb3565b60405180910390fd5b50674563918244f4000034146109d6576040517f08c379a00000000000000000000000000000000000000000000000000000000081526004016109cd90612fd9565b60405180910390fd5b6000600254905060006003600083815260200190815260200160002090508181600001819055508686826006019190610a109291906122c9565b508888826005019190610a249291906122c9565b50848160070160036101000a81548173ffffffffffffffffffffffffffffffffffffffff021916908373ffffffffffffffffffffffffffffffffffffffff160217905550338160080160006101000a81548173ffffffffffffffffffffffffffffffffffffffff021916908373ffffffffffffffffffffffffffffffffffffffff1602179055508381600101819055506203f48063ffffffff1642610ac99190613028565b816002018190555060008160070160026101000a81548160ff02191690831515021790555060008160070160006101000a81548160ff02191690831515021790555060026000815480929190610b1e9061307e565b91905055503373ffffffffffffffffffffffffffffffffffffffff167f8dfa4a39b973cacc42c5d14d9461d66fd1fda5ea696f7d2a3c44fd9d7f11d04f85604051610b6991906124eb565b60405180910390a2505050505050505050565b7ff4bb84e1768dd286358a736d195a0b228621173f655a73b89bf8b191ed0ba07d81565b6040518060600160405280602381526020016136db60239139610be37ff4bb84e1768dd286358a736d195a0b228621173f655a73b89bf8b191ed0ba07d33610e2c565b8190610c25576040517f08c379a0000000000000000000000000000000000000000000000000000000008152600401610c1c9190612eb3565b60405180910390fd5b5060006003600085815260200190815260200160002090508060070160029054906101000a900460ff1615610c8f576040517f08c379a0000000000000000000000000000000000000000000000000000000008152600401610c8690613113565b60405180910390fd5b8060040154816003015411610cd9576040517f08c379a0000000000000000000000000000000000000000000000000000000008152600401610cd0906131a5565b60405180910390fd5b8060010154816009015410610d23576040517f08c379a0000000000000000000000000000000000000000000000000000000008152600401610d1a90613113565b60405180910390fd5b82816009016000828254610d379190613028565b9250508190555080600a0160405180606001604052803373ffffffffffffffffffffffffffffffffffffffff16815260200185815260200142815250908060018154018082558091505060019003906000526020600020906003020160009091909190915060008201518160000160006101000a81548173ffffffffffffffffffffffffffffffffffffffff021916908373ffffffffffffffffffffffffffffffffffffffff160217905550602082015181600101556040820151816002015550508060010154816009015410610e265760018160070160006101000a81548160ff0219169083151502179055505b50505050565b60006001600084815260200190815260200160002060000160008373ffffffffffffffffffffffffffffffffffffffff1673ffffffffffffffffffffffffffffffffffffffff16815260200190815260200160002060009054906101000a900460ff16905092915050565b6000801b81565b6040518060600160405280602e8152602001613660602e9139610ee17ff4bb84e1768dd286358a736d195a0b228621173f655a73b89bf8b191ed0ba07d33610e2c565b8190610f23576040517f08c379a0000000000000000000000000000000000000000000000000000000008152600401610f1a9190612eb3565b60405180910390fd5b5060006003600084815260200190815260200160002090508060010154816009015411610f85576040517f08c379a0000000000000000000000000000000000000000000000000000000008152600401610f7c90613237565b60405180910390fd5b8060070160039054906101000a900473ffffffffffffffffffffffffffffffffffffffff1673ffffffffffffffffffffffffffffffffffffffff166108fc82600901549081150290604051600060405180830381858888f19350505050158015610ff3573d6000803e3d6000fd5b5060018160070160026101000a81548160ff02191690831515021790555060018160070160006101000a81548160ff021916908315150217905550505050565b600080600460003373ffffffffffffffffffffffffffffffffffffffff1673ffffffffffffffffffffffffffffffffffffffff1681526020019081526020016000205411905090565b61108461234f565b60036000838152602001908152602001600020604051806101c001604052908160008201548152602001600182015481526020016002820154815260200160038201548152602001600482015481526020016005820180546110e590613286565b80601f016020809104026020016040519081016040528092919081815260200182805461111190613286565b801561115e5780601f106111335761010080835404028352916020019161115e565b820191906000526020600020905b81548152906001019060200180831161114157829003601f168201915b5050505050815260200160068201805461117790613286565b80601f01602080910402602001604051908101604052809291908181526020018280546111a390613286565b80156111f05780601f106111c5576101008083540402835291602001916111f0565b820191906000526020600020905b8154815290600101906020018083116111d357829003601f168201915b505050505081526020016007820160009054906101000a900460ff161515151581526020016007820160019054906101000a900460ff161515151581526020016007820160029054906101000a900460ff161515151581526020016007820160039054906101000a900473ffffffffffffffffffffffffffffffffffffffff1673ffffffffffffffffffffffffffffffffffffffff1673ffffffffffffffffffffffffffffffffffffffff1681526020016008820160009054906101000a900473ffffffffffffffffffffffffffffffffffffffff1673ffffffffffffffffffffffffffffffffffffffff1673ffffffffffffffffffffffffffffffffffffffff16815260200160098201548152602001600a8201805480602002602001604051908101604052809291908181526020016000905b828210156113c157838290600052602060002090600302016040518060600160405290816000820160009054906101000a900473ffffffffffffffffffffffffffffffffffffffff1673ffffffffffffffffffffffffffffffffffffffff1673ffffffffffffffffffffffffffffffffffffffff1681526020016001820154815260200160028201548152505081526020019060010190611325565b50505050815250509050919050565b60405180606001604052806029815260200161368e602991396114137ff4bb84e1768dd286358a736d195a0b228621173f655a73b89bf8b191ed0ba07d33610e2c565b8190611455576040517f08c379a000000000000000000000000000000000000000000000000000000000815260040161144c9190612eb3565b60405180910390fd5b5060006003600085815260200190815260200160002090508060070160009054906101000a900460ff168061148e575042816002015411155b156114eb5760018160070160006101000a81548160ff0219169083151502179055506040517f08c379a00000000000000000000000000000000000000000000000000000000081526004016114e29061332a565b60405180910390fd5b60005b600660003373ffffffffffffffffffffffffffffffffffffffff1673ffffffffffffffffffffffffffffffffffffffff168152602001908152602001600020805490508110156115ed57600660003373ffffffffffffffffffffffffffffffffffffffff1673ffffffffffffffffffffffffffffffffffffffff16815260200190815260200160002081815481106115895761158861334a565b5b9060005260206000200154826000015414156115da576040517f08c379a00000000000000000000000000000000000000000000000000000000081526004016115d1906133c5565b60405180910390fd5b80806115e59061307e565b9150506114ee565b508215611613578060030160008154809291906116099061307e565b919050555061162e565b8060040160008154809291906116289061307e565b91905055505b600660003373ffffffffffffffffffffffffffffffffffffffff1673ffffffffffffffffffffffffffffffffffffffff16815260200190815260200160002084908060018154018082558091505060019003906000526020600020016000909190919091505550505050565b6060600060025467ffffffffffffffff8111156116ba576116b96133e5565b5b6040519080825280602002602001820160405280156116f357816020015b6116e061234f565b8152602001906001900390816116d85790505b50905060005b600254811015611a795760036000828152602001908152602001600020604051806101c0016040529081600082015481526020016001820154815260200160028201548152602001600382015481526020016004820154815260200160058201805461176490613286565b80601f016020809104026020016040519081016040528092919081815260200182805461179090613286565b80156117dd5780601f106117b2576101008083540402835291602001916117dd565b820191906000526020600020905b8154815290600101906020018083116117c057829003601f168201915b505050505081526020016006820180546117f690613286565b80601f016020809104026020016040519081016040528092919081815260200182805461182290613286565b801561186f5780601f106118445761010080835404028352916020019161186f565b820191906000526020600020905b81548152906001019060200180831161185257829003601f168201915b505050505081526020016007820160009054906101000a900460ff161515151581526020016007820160019054906101000a900460ff161515151581526020016007820160029054906101000a900460ff161515151581526020016007820160039054906101000a900473ffffffffffffffffffffffffffffffffffffffff1673ffffffffffffffffffffffffffffffffffffffff1673ffffffffffffffffffffffffffffffffffffffff1681526020016008820160009054906101000a900473ffffffffffffffffffffffffffffffffffffffff1673ffffffffffffffffffffffffffffffffffffffff1673ffffffffffffffffffffffffffffffffffffffff16815260200160098201548152602001600a8201805480602002602001604051908101604052809291908181526020016000905b82821015611a4057838290600052602060002090600302016040518060600160405290816000820160009054906101000a900473ffffffffffffffffffffffffffffffffffffffff1673ffffffffffffffffffffffffffffffffffffffff1673ffffffffffffffffffffffffffffffffffffffff16815260200160018201548152602001600282015481525050815260200190600101906119a4565b5050505081525050828281518110611a5b57611a5a61334a565b5b60200260200101819052508080611a719061307e565b9150506116f9565b508091505090565b600080600560003373ffffffffffffffffffffffffffffffffffffffff1673ffffffffffffffffffffffffffffffffffffffff1681526020019081526020016000205411905090565b611ad38261076c565b611ae481611adf611e18565b611e20565b611aee8383611f9d565b505050565b6000349050611b227ff4bb84e1768dd286358a736d195a0b228621173f655a73b89bf8b191ed0ba07d33610e2c565b611cfe57600081600560003373ffffffffffffffffffffffffffffffffffffffff1673ffffffffffffffffffffffffffffffffffffffff16815260200190815260200160002054611b739190613028565b9050671bc16d674ec800008110611c7757611bae7ff4bb84e1768dd286358a736d195a0b228621173f655a73b89bf8b191ed0ba07d3361207f565b611bd87fffa60083152bd11704a80cc8c7a409dad8aa74288b454a3ba0e94c0abc7cf1683361207f565b80600460003373ffffffffffffffffffffffffffffffffffffffff1673ffffffffffffffffffffffffffffffffffffffff1681526020019081526020016000208190555081600560003373ffffffffffffffffffffffffffffffffffffffff1673ffffffffffffffffffffffffffffffffffffffff1681526020019081526020016000206000828254611c6b9190613028565b92505081905550611cf8565b611ca17fffa60083152bd11704a80cc8c7a409dad8aa74288b454a3ba0e94c0abc7cf1683361207f565b81600560003373ffffffffffffffffffffffffffffffffffffffff1673ffffffffffffffffffffffffffffffffffffffff1681526020019081526020016000206000828254611cf09190613028565b925050819055505b50611dab565b80600560003373ffffffffffffffffffffffffffffffffffffffff1673ffffffffffffffffffffffffffffffffffffffff1681526020019081526020016000206000828254611d4d9190613028565b9250508190555080600460003373ffffffffffffffffffffffffffffffffffffffff1673ffffffffffffffffffffffffffffffffffffffff1681526020019081526020016000206000828254611da39190613028565b925050819055505b50565b60007f01ffc9a7000000000000000000000000000000000000000000000000000000007bffffffffffffffffffffffffffffffffffffffffffffffffffffffff1916827bffffffffffffffffffffffffffffffffffffffffffffffffffffffff1916149050919050565b600033905090565b611e2a8282610e2c565b611eb957611e4f8173ffffffffffffffffffffffffffffffffffffffff16601461208d565b611e5d8360001c602061208d565b604051602001611e6e9291906134e8565b6040516020818303038152906040526040517f08c379a0000000000000000000000000000000000000000000000000000000008152600401611eb09190612eb3565b60405180910390fd5b5050565b611ec78282610e2c565b611f9957600180600084815260200190815260200160002060000160008373ffffffffffffffffffffffffffffffffffffffff1673ffffffffffffffffffffffffffffffffffffffff16815260200190815260200160002060006101000a81548160ff021916908315150217905550611f3e611e18565b73ffffffffffffffffffffffffffffffffffffffff168173ffffffffffffffffffffffffffffffffffffffff16837f2f8788117e7eff1d82e926ec794901d17c78024a50270940304540a733656f0d60405160405180910390a45b5050565b611fa78282610e2c565b1561207b5760006001600084815260200190815260200160002060000160008373ffffffffffffffffffffffffffffffffffffffff1673ffffffffffffffffffffffffffffffffffffffff16815260200190815260200160002060006101000a81548160ff021916908315150217905550612020611e18565b73ffffffffffffffffffffffffffffffffffffffff168173ffffffffffffffffffffffffffffffffffffffff16837ff6391f5c32d9c69d2a47ea670b442974b53935d1edc7fd64eb21e047a839171b60405160405180910390a45b5050565b6120898282611ebd565b5050565b6060600060028360026120a09190613522565b6120aa9190613028565b67ffffffffffffffff8111156120c3576120c26133e5565b5b6040519080825280601f01601f1916602001820160405280156120f55781602001600182028036833780820191505090505b5090507f30000000000000000000000000000000000000000000000000000000000000008160008151811061212d5761212c61334a565b5b60200101907effffffffffffffffffffffffffffffffffffffffffffffffffffffffffffff1916908160001a9053507f7800000000000000000000000000000000000000000000000000000000000000816001815181106121915761219061334a565b5b60200101907effffffffffffffffffffffffffffffffffffffffffffffffffffffffffffff1916908160001a905350600060018460026121d19190613522565b6121db9190613028565b90505b600181111561227b577f3031323334353637383961626364656600000000000000000000000000000000600f86166010811061221d5761221c61334a565b5b1a60f81b8282815181106122345761223361334a565b5b60200101907effffffffffffffffffffffffffffffffffffffffffffffffffffffffffffff1916908160001a905350600485901c9450806122749061357c565b90506121de565b50600084146122bf576040517f08c379a00000000000000000000000000000000000000000000000000000000081526004016122b6906135f2565b60405180910390fd5b8091505092915050565b8280546122d590613286565b90600052602060002090601f0160209004810192826122f7576000855561233e565b82601f1061231057803560ff191683800117855561233e565b8280016001018555821561233e579182015b8281111561233d578235825591602001919060010190612322565b5b50905061234b91906123f0565b5090565b604051806101c0016040528060008152602001600081526020016000815260200160008152602001600081526020016060815260200160608152602001600015158152602001600015158152602001600015158152602001600073ffffffffffffffffffffffffffffffffffffffff168152602001600073ffffffffffffffffffffffffffffffffffffffff16815260200160008152602001606081525090565b5b808211156124095760008160009055506001016123f1565b5090565b600080fd5b600080fd5b60007fffffffff0000000000000000000000000000000000000000000000000000000082169050919050565b61244c81612417565b811461245757600080fd5b50565b60008135905061246981612443565b92915050565b6000602082840312156124855761248461240d565b5b60006124938482850161245a565b91505092915050565b60008115159050919050565b6124b18161249c565b82525050565b60006020820190506124cc60008301846124a8565b92915050565b6000819050919050565b6124e5816124d2565b82525050565b600060208201905061250060008301846124dc565b92915050565b600081519050919050565b600082825260208201905092915050565b6000819050602082019050919050565b61253b816124d2565b82525050565b600061254d8383612532565b60208301905092915050565b6000602082019050919050565b600061257182612506565b61257b8185612511565b935061258683612522565b8060005b838110156125b757815161259e8882612541565b97506125a983612559565b92505060018101905061258a565b5085935050505092915050565b600060208201905081810360008301526125de8184612566565b905092915050565b6000819050919050565b6125f9816125e6565b82525050565b600060208201905061261460008301846125f0565b92915050565b612623816125e6565b811461262e57600080fd5b50565b6000813590506126408161261a565b92915050565b60006020828403121561265c5761265b61240d565b5b600061266a84828501612631565b91505092915050565b600073ffffffffffffffffffffffffffffffffffffffff82169050919050565b600061269e82612673565b9050919050565b6126ae81612693565b81146126b957600080fd5b50565b6000813590506126cb816126a5565b92915050565b600080604083850312156126e8576126e761240d565b5b60006126f685828601612631565b9250506020612707858286016126bc565b9150509250929050565b600080fd5b600080fd5b600080fd5b60008083601f84011261273657612735612711565b5b8235905067ffffffffffffffff81111561275357612752612716565b5b60208301915083600182028301111561276f5761276e61271b565b5b9250929050565b61277f816124d2565b811461278a57600080fd5b50565b60008135905061279c81612776565b92915050565b600080600080600080608087890312156127bf576127be61240d565b5b600087013567ffffffffffffffff8111156127dd576127dc612412565b5b6127e989828a01612720565b9650965050602087013567ffffffffffffffff81111561280c5761280b612412565b5b61281889828a01612720565b9450945050604061282b89828a016126bc565b925050606061283c89828a0161278d565b9150509295509295509295565b600080604083850312156128605761285f61240d565b5b600061286e8582860161278d565b925050602061287f8582860161278d565b9150509250929050565b60006020828403121561289f5761289e61240d565b5b60006128ad8482850161278d565b91505092915050565b600081519050919050565b600082825260208201905092915050565b60005b838110156128f05780820151818401526020810190506128d5565b838111156128ff576000848401525b50505050565b6000601f19601f8301169050919050565b6000612921826128b6565b61292b81856128c1565b935061293b8185602086016128d2565b61294481612905565b840191505092915050565b6129588161249c565b82525050565b600061296982612673565b9050919050565b6129798161295e565b82525050565b61298881612693565b82525050565b600081519050919050565b600082825260208201905092915050565b6000819050602082019050919050565b6060820160008201516129d0600085018261297f565b5060208201516129e36020850182612532565b5060408201516129f66040850182612532565b50505050565b6000612a0883836129ba565b60608301905092915050565b6000602082019050919050565b6000612a2c8261298e565b612a368185612999565b9350612a41836129aa565b8060005b83811015612a72578151612a5988826129fc565b9750612a6483612a14565b925050600181019050612a45565b5085935050505092915050565b60006101c083016000830151612a986000860182612532565b506020830151612aab6020860182612532565b506040830151612abe6040860182612532565b506060830151612ad16060860182612532565b506080830151612ae46080860182612532565b5060a083015184820360a0860152612afc8282612916565b91505060c083015184820360c0860152612b168282612916565b91505060e0830151612b2b60e086018261294f565b50610100830151612b4061010086018261294f565b50610120830151612b5561012086018261294f565b50610140830151612b6a610140860182612970565b50610160830151612b7f61016086018261297f565b50610180830151612b94610180860182612532565b506101a08301518482036101a0860152612bae8282612a21565b9150508091505092915050565b60006020820190508181036000830152612bd58184612a7f565b905092915050565b612be68161249c565b8114612bf157600080fd5b50565b600081359050612c0381612bdd565b92915050565b60008060408385031215612c2057612c1f61240d565b5b6000612c2e8582860161278d565b9250506020612c3f85828601612bf4565b9150509250929050565b600081519050919050565b600082825260208201905092915050565b6000819050602082019050919050565b60006101c083016000830151612c8e6000860182612532565b506020830151612ca16020860182612532565b506040830151612cb46040860182612532565b506060830151612cc76060860182612532565b506080830151612cda6080860182612532565b5060a083015184820360a0860152612cf28282612916565b91505060c083015184820360c0860152612d0c8282612916565b91505060e0830151612d2160e086018261294f565b50610100830151612d3661010086018261294f565b50610120830151612d4b61012086018261294f565b50610140830151612d60610140860182612970565b50610160830151612d7561016086018261297f565b50610180830151612d8a610180860182612532565b506101a08301518482036101a0860152612da48282612a21565b9150508091505092915050565b6000612dbd8383612c75565b905092915050565b6000602082019050919050565b6000612ddd82612c49565b612de78185612c54565b935083602082028501612df985612c65565b8060005b85811015612e355784840389528151612e168582612db1565b9450612e2183612dc5565b925060208a01995050600181019050612dfd565b50829750879550505050505092915050565b60006020820190508181036000830152612e618184612dd2565b905092915050565b600082825260208201905092915050565b6000612e85826128b6565b612e8f8185612e69565b9350612e9f8185602086016128d2565b612ea881612905565b840191505092915050565b60006020820190508181036000830152612ecd8184612e7a565b905092915050565b7f416363657373436f6e74726f6c3a2063616e206f6e6c792072656e6f756e636560008201527f20726f6c657320666f722073656c660000000000000000000000000000000000602082015250565b6000612f31602f83612e69565b9150612f3c82612ed5565b604082019050919050565b60006020820190508181036000830152612f6081612f24565b9050919050565b7f596f75206e65656420746f2061646420302e31204d4154494320746f2063726560008201527f61746520612070726f706f73616c000000000000000000000000000000000000602082015250565b6000612fc3602e83612e69565b9150612fce82612f67565b604082019050919050565b60006020820190508181036000830152612ff281612fb6565b9050919050565b7f4e487b7100000000000000000000000000000000000000000000000000000000600052601160045260246000fd5b6000613033826124d2565b915061303e836124d2565b9250827fffffffffffffffffffffffffffffffffffffffffffffffffffffffffffffffff0382111561307357613072612ff9565b5b828201905092915050565b6000613089826124d2565b91507fffffffffffffffffffffffffffffffffffffffffffffffffffffffffffffffff8214156130bc576130bb612ff9565b5b600182019050919050565b7f52657175697265642066756e6473206172652070726f76696465642e00000000600082015250565b60006130fd601c83612e69565b9150613108826130c7565b602082019050919050565b6000602082019050818103600083015261312c816130f0565b9050919050565b7f546869732070726f706f73616c206973206e6f742073656c656374656420666f60008201527f722066756e64696e672e00000000000000000000000000000000000000000000602082015250565b600061318f602a83612e69565b915061319a82613133565b604082019050919050565b600060208201905081810360008301526131be81613182565b9050919050565b7f52657175697265642066756e647320617265206e6f74206d65742e20506c656160008201527f73652070726f76696465722066756e64732e0000000000000000000000000000602082015250565b6000613221603283612e69565b915061322c826131c5565b604082019050919050565b6000602082019050818103600083015261325081613214565b9050919050565b7f4e487b7100000000000000000000000000000000000000000000000000000000600052602260045260246000fd5b6000600282049050600182168061329e57607f821691505b602082108114156132b2576132b1613257565b5b50919050565b7f54696d6520706572696f64206f6620746869732070726f706f73616c2069732060008201527f656e6465642e0000000000000000000000000000000000000000000000000000602082015250565b6000613314602683612e69565b915061331f826132b8565b604082019050919050565b6000602082019050818103600083015261334381613307565b9050919050565b7f4e487b7100000000000000000000000000000000000000000000000000000000600052603260045260246000fd5b7f596f752063616e206f6e6c7920766f7465206f6e63652e000000000000000000600082015250565b60006133af601783612e69565b91506133ba82613379565b602082019050919050565b600060208201905081810360008301526133de816133a2565b9050919050565b7f4e487b7100000000000000000000000000000000000000000000000000000000600052604160045260246000fd5b600081905092915050565b7f416363657373436f6e74726f6c3a206163636f756e7420000000000000000000600082015250565b6000613455601783613414565b91506134608261341f565b601782019050919050565b6000613476826128b6565b6134808185613414565b93506134908185602086016128d2565b80840191505092915050565b7f206973206d697373696e6720726f6c6520000000000000000000000000000000600082015250565b60006134d2601183613414565b91506134dd8261349c565b601182019050919050565b60006134f382613448565b91506134ff828561346b565b915061350a826134c5565b9150613516828461346b565b91508190509392505050565b600061352d826124d2565b9150613538836124d2565b9250817fffffffffffffffffffffffffffffffffffffffffffffffffffffffffffffffff048311821515161561357157613570612ff9565b5b828202905092915050565b6000613587826124d2565b9150600082141561359b5761359a612ff9565b5b600182039050919050565b7f537472696e67733a20686578206c656e67746820696e73756666696369656e74600082015250565b60006135dc602083612e69565b91506135e7826135a6565b602082019050919050565b6000602082019050818103600083015261360b816135cf565b905091905056fe4f6e6c79205374616b65686f6c6465722063616e2063616c6c20746869732066756e6374696f6e2e4f6e6c79206d656d626572732063616e20637265617465206e65772070726f706f73616c2e4f6e6c79205374616b65686f6c646572732061726520616c6c6f77656420746f2072656c656173652066756e64734f6e6c79205374616b65686f6c646572732063616e20766f7465206f6e20612070726f706f73616c2e4f6e6c79204d656d626572732063616e2063616c6c20746869732066756e6374696f6e2e4f6e6c79205374616b65686f6c646572732063616e206d616b65207061796d656e7473a2646970667358221220990264f86284092636c3f6b3f37cb6c5cfd5dcc29ca9cc3aca1b9c31ed733e3a64736f6c634300080a0033",
  "immutableReferences": {},
  "source": "// SPDX-License-Identifier: MIT\npragma solidity ^0.8.0;\n\nimport \"@openzeppelin/contracts/access/AccessControl.sol\";\nimport \"@openzeppelin/contracts/security/ReentrancyGuard.sol\";\n\ncontract FundingDAO is ReentrancyGuard, AccessControl {\n    bytes32 public constant MEMBER = keccak256(\"MEMBER\");\n    bytes32 public constant STAKEHOLDER = keccak256(\"STAKEHOLDER\");\n\n    uint32 constant votingPeriod = 3 days;\n\n    uint256 public proposalsCount = 0;\n\n    struct Proposal {\n        uint256 id;\n        uint256 amount;\n        uint256 livePeriod;\n        uint256 voteInFavor;\n        uint256 voteAgainst;\n        string title;\n        string desc;\n        bool isCompleted;\n        bool paid;\n        bool isPaid;\n        address payable receiverAddress;\n        address proposer;\n        uint256 totalFundRaised;\n        Funding[] funders;\n    }\n\n    struct Funding {\n        address payer;\n        uint256 amount;\n        uint256 timestamp;\n    }\n\n    mapping(uint256 => Proposal) private proposals;\n    mapping(address => uint256) private stakeholders;\n    mapping(address => uint256) private members;\n    mapping(address => uint256[]) private votes;\n\n    event NewMember(address indexed fromAddress, uint256 amount);\n    event NewProposal(address indexed proposer, uint256 amount);\n    event Payment(\n        address indexed stakeholder,\n        address indexed projectAddress,\n        uint256 amount\n    );\n\n    modifier onlyMember(string memory message) {\n        require(hasRole(MEMBER, msg.sender), message);\n        _;\n    }\n\n    modifier onlyStakeholder(string memory message) {\n        require(hasRole(STAKEHOLDER, msg.sender), message);\n        _;\n    }\n\n    function createProposal(\n        string calldata title,\n        string calldata desc,\n        address receiverAddress,\n        uint256 amount\n    ) public payable onlyMember(\"Only members can create new proposal.\") {\n        require(\n            msg.value == 5 * 10**18,\n            \"You need to add 0.1 MATIC to create a proposal\"\n        );\n        uint256 proposalId = proposalsCount;\n        Proposal storage proposal = proposals[proposalId];\n        proposal.id = proposalId;\n        proposal.desc = desc;\n        proposal.title = title;\n        proposal.receiverAddress = payable(receiverAddress);\n        proposal.proposer = payable(msg.sender);\n        proposal.amount = amount;\n        proposal.livePeriod = block.timestamp + votingPeriod;\n        proposal.isPaid = false;\n        proposal.isCompleted = false;\n        proposalsCount++;\n        emit NewProposal(msg.sender, amount);\n    }\n\n    function getAllProposals() public view returns (Proposal[] memory) {\n        Proposal[] memory tempProposals = new Proposal[](proposalsCount);\n        for (uint256 index = 0; index < proposalsCount; index++) {\n            tempProposals[index] = proposals[index];\n        }\n        return tempProposals;\n    }\n\n    function getProposal(uint256 proposalId)\n        public\n        view\n        returns (Proposal memory)\n    {\n        return proposals[proposalId];\n    }\n\n    function getVotes()\n        public\n        view\n        onlyStakeholder(\"Only Stakeholder can call this function.\")\n        returns (uint256[] memory)\n    {\n        return votes[msg.sender];\n    }\n\n    function getStakeholderBal()\n        public\n        view\n        onlyStakeholder(\"Only Stakeholder can call this function.\")\n        returns (uint256)\n    {\n        return stakeholders[msg.sender];\n    }\n\n    function getMemberBal()\n        public\n        view\n        onlyMember(\"Only Members can call this function.\")\n        returns (uint256)\n    {\n        return members[msg.sender];\n    }\n\n    function isStakeholder() public view returns (bool) {\n        return stakeholders[msg.sender] > 0;\n    }\n\n    function isMember() public view returns (bool) {\n        return members[msg.sender] > 0;\n    }\n\n    function vote(uint256 proposalId, bool inFavour)\n        public\n        onlyStakeholder(\"Only Stakeholders can vote on a proposal.\")\n    {\n        Proposal storage proposal = proposals[proposalId];\n\n        if (proposal.isCompleted || proposal.livePeriod <= block.timestamp) {\n            proposal.isCompleted = true;\n            revert(\"Time period of this proposal is ended.\");\n        }\n        for (uint256 i = 0; i < votes[msg.sender].length; i++) {\n            if (proposal.id == votes[msg.sender][i])\n                revert(\"You can only vote once.\");\n        }\n\n        if (inFavour) proposal.voteInFavor++;\n        else proposal.voteAgainst++;\n\n        votes[msg.sender].push(proposalId);\n    }\n\n    function provideFunds(uint256 proposalId, uint256 fundAmount)\n        public\n        payable\n        onlyStakeholder(\"Only Stakeholders can make payments\")\n    {\n        Proposal storage proposal = proposals[proposalId];\n\n        if (proposal.isPaid) revert(\"Required funds are provided.\");\n        if (proposal.voteInFavor <= proposal.voteAgainst)\n            revert(\"This proposal is not selected for funding.\");\n        if (proposal.totalFundRaised >= proposal.amount)\n            revert(\"Required funds are provided.\");\n        proposal.totalFundRaised += fundAmount;\n        proposal.funders.push(Funding(msg.sender, fundAmount, block.timestamp));\n        if (proposal.totalFundRaised >= proposal.amount) {\n            proposal.isCompleted = true;\n        }\n    }\n\n    function releaseFunding(uint256 proposalId)\n        public\n        payable\n        onlyStakeholder(\"Only Stakeholders are allowed to release funds\")\n    {\n        Proposal storage proposal = proposals[proposalId];\n\n        if (proposal.totalFundRaised <= proposal.amount) {\n            revert(\"Required funds are not met. Please provider funds.\");\n        }\n        proposal.receiverAddress.transfer(proposal.totalFundRaised);\n        proposal.isPaid = true;\n        proposal.isCompleted = true;\n    }\n\n    function createStakeholder() public payable {\n        uint256 amount = msg.value;\n        if (!hasRole(STAKEHOLDER, msg.sender)) {\n            uint256 total = members[msg.sender] + amount;\n            if (total >= 2 ether) {\n                _setupRole(STAKEHOLDER, msg.sender);\n                _setupRole(MEMBER, msg.sender);\n                stakeholders[msg.sender] = total;\n                members[msg.sender] += amount;\n            } else {\n                _setupRole(MEMBER, msg.sender);\n                members[msg.sender] += amount;\n            }\n        } else {\n            members[msg.sender] += amount;\n            stakeholders[msg.sender] += amount;\n        }\n    }\n}\n",
  "sourcePath": "/Users/viralsangani/Desktop/Projects/Personal/DAO/funding-dao/contracts/FundingDao.sol",
  "compiler": {
    "name": "solc",
    "version": "0.8.10+commit.fc410830.Emscripten.clang"
  },
  "schemaVersion": "3.4.3",
  "updatedAt": "2021-12-05T15:10:48.829Z",
  "networkType": "ethereum",
  "devdoc": {
    "kind": "dev",
    "methods": {
      "getRoleAdmin(bytes32)": {
        "details": "Returns the admin role that controls `role`. See {grantRole} and {revokeRole}. To change a role's admin, use {_setRoleAdmin}."
      },
      "grantRole(bytes32,address)": {
        "details": "Grants `role` to `account`. If `account` had not been already granted `role`, emits a {RoleGranted} event. Requirements: - the caller must have ``role``'s admin role."
      },
      "hasRole(bytes32,address)": {
        "details": "Returns `true` if `account` has been granted `role`."
      },
      "renounceRole(bytes32,address)": {
        "details": "Revokes `role` from the calling account. Roles are often managed via {grantRole} and {revokeRole}: this function's purpose is to provide a mechanism for accounts to lose their privileges if they are compromised (such as when a trusted device is misplaced). If the calling account had been revoked `role`, emits a {RoleRevoked} event. Requirements: - the caller must be `account`."
      },
      "revokeRole(bytes32,address)": {
        "details": "Revokes `role` from `account`. If `account` had been granted `role`, emits a {RoleRevoked} event. Requirements: - the caller must have ``role``'s admin role."
      },
      "supportsInterface(bytes4)": {
        "details": "See {IERC165-supportsInterface}."
      }
    },
    "version": 1
  },
  "userdoc": {
    "kind": "user",
    "methods": {},
    "version": 1
  }
}